:100000000C945E010C9472180C947B010C947B018F
:100010000C947B010C947B010C947B010C947B0170
:100020000C947B010C947B010C94941D0C94681E21
:100030000C941C170C947B010C947B010C947B0199
:100040000C947B010C947B010C947B010C947B0140
:100050000C947B010C9494170C947B010C947B0101
:100060000C947B010C947B010C947B010C947B0120
:100070000C947B010C947B010C947B010C947B0110
:100080000C947B010C947B010C947B010C947B0100
:100090000C947B010C947B010C947B010C947B01F0
:1000A0000C947B010C947B010C947B0129001E00B5
:1000B0001F002000210022002F002B0014001A0036
:1000C0000800150017002D00390004001600070075
:1000D00009000A002900E1001D001B0006001900AC
:1000E00005002152E0002152E300E20028002C002C
:1000F0002A004C00270026002500240023003000A1
:100100003100130012000C0018001C002E003400F7
:1001100033000F000E000D000B002900E500380031
:10012000370036001000110021524F0052005100DC
:10013000500028002C002A0035003A003B003C000B
:100140003D003E003F0000000000000000000000F5
:10015000000000000000AC00AB00AD00AE000000ED
:10016000000000000000000000000000000001008E
:10017000000001000000000000000000000000007E
:1001800045004400430042004100400000000000E0
:10019000000000000000000000000000000000005F
:1001A000AA00A900A8000000000000000000000054
:1001B000000000000100000000000000000000003E
:1001C0000000000020034500720067006F0044003B
:1001D0006100730068002000720065007600310045
:1001E0002E00320000000C034F006D006B00620017
:1001F000640000000403090409023B00020100A09E
:10020000FA090400000103010100092111010001A4
:1002100022440007058103080001090401000103CD
:1002200000000009211101000122320007058203AC
:100230002000011201000200000008EDFE606000D5
:10024000010102000105010980A101850319012AAC
:10025000B700150126B700950175108100C0050C87
:100260000901A101850419012AA002150126A00295
:10027000950175108100C005010906A10105071946
:10028000E029E715002501950875018102950175A2
:100290000881010507190029FF150026FF009506B2
:1002A0007508810005081901290515002501950526
:1002B00075019102950175039101C00011241FBEC3
:1002C000CFEFDAE0DEBFCDBF11E0A0E0B1E0EEE0BD
:1002D000F2E402C005900D92AA3AB107D9F722E0E4
:1002E000AAEAB1E001C01D92AA3AB207E1F70E9462
:1002F000B4130C94C6200C9400008230B8F46A3019
:10030000A8F4473098F450E097E0699F400D511DE4
:100310001124FA0196E4899FE00DF11D1124EE0FDE
:10032000FF1FE455FF4F85919491089581E090E07F
:1003300008950E947D01089581E008950E949C0126
:1003400008950E949C01089581E008950E949C01F7
:1003500008950E949C0108950E94A901089508959E
:1003600008950E94AF01089508950895A6E0B0E0B1
:10037000ECEBF1E00C94362049835A839E83309154
:10038000B10189819A8131111AC03E81332399F0DC
:10039000222389F00E94D507182F682F89819A811E
:1003A0000E94B10769817A81812F0E94BD0E269635
:1003B000E3E00C9452200E94C307182FF3CF0E9451
:1003C000D50769817A81F1CFFC01262F40815181C7
:1003D00062817381848195810E94B6010895CF93D3
:1003E000DF93EC0161E00E94E401BE010E949E01E6
:1003F000882359F061E0CE010E94E401BE010E9411
:10040000A1018170DF91CF91089580E0FACF0F9321
:100410001F93CF93DF93EC0160E00E94E4018C0115
:10042000BE010E94B001BE01C8010E94B101DF916E
:10043000CF911F910F91089521E030E0A90102C0F2
:10044000440F551F8A95E2F7CA010E94D30608950A
:10045000CF93C82F81E090E00C2E02C0880F991F27
:100460000A94E2F70E94110C8C2F0E941C02CF917B
:10047000089581E008950E94390208950E9439028A
:100480000895CF93C82F0E9486068C2F0E943B02AE
:100490008C2F0E943E022FEF84E39CE0215080408D
:1004A0009040E1F700C00000CF91089581E00E94E4
:1004B00041020E94B817089580E00E9441020E9404
:1004C000C91708950F931F93CF93DF938C0161E0B9
:1004D0000E94E401EC01B8010E94A601811106C04E
:1004E00080E0DF91CF911F910F910895B801CE0167
:1004F0000E94AC018823A1F3B801CE010E945015DF
:10050000882371F3B801CE010E941014882341F3AF
:10051000B801CE010E94E613882311F3B801CE0181
:100520000E9401108823E1F2F8018581882361F09F
:10053000C330FCE7DF07E9F058F4C115ECE7DE074C
:10054000A9F0C130DC47B9F0C8010E94A401C9CFAD
:10055000CB358CE7D807A9F0CC35ECE7DE0771F096
:10056000CA35DC4789F70E94EC0BEECF0E94560299
:10057000B7CF0E94F40B0E945C02B2CF0E94E20B44
:10058000E3CF0E94F00BE0CF0E94B4010E94DE1680
:100590000E94E80208950E94EC020E94B5010E94A8
:1005A000E316089581E008950895CF93DF93D82F3F
:1005B0000E94D202C82F882319F08D2F0E94D402E6
:1005C0008C2FDF91CF91089508950E94D502089550
:1005D00080E00E94E50208950E9499150E94E502BC
:1005E0000895CF930E949915C82F8091AC018C1764
:1005F00079F0C093AC010E9488176093AD017093AD
:10060000AE018093AF019093B0018C2F0E94E50260
:10061000CF910895ADE0B0E0E0E1F3E00C94372035
:10062000488759876A877B878C879D8791110E94AD
:10063000220B1F8286E0FE013896DE0111960190A2
:100640000D928A95E1F78D8181110DC029813A8142
:100650004B815C816D817E818F810E946C0A2D9619
:10066000E2E00C945320CE0101960E94EF0181112B
:10067000EDCFF5CFFC012481213021F480819181DF
:100680000E9407080895CF93C82F8823C9F08238A5
:10069000C9F40E94AD1581FD13C089E30E9455166F
:1006A0000E94910B2FEF87EE93E021508040904005
:1006B000E1F700C0000089E30E945D160E94910BE3
:1006C000CF9108958338A1F40E94AD1580FDF8CF35
:1006D00083E50E9455160E94910B2FEF81EE94E066
:1006E000215080409040E1F700C0000083E5E4CF56
:1006F0008438A1F40E94AD1582FDE2CF87E40E9408
:1007000055160E94910B2FEF81EE94E0215080400E
:100710009040E1F700C0000087E4CECF8CEF8C0F53
:10072000813A70F48C2F0E941A16882329F08C2F9E
:100730000E945D160E94910B8C2F0E945516BECF11
:1007400080E28C0F883048F4C77081E001C0880FC8
:10075000CA95EAF70E94050BB1CFEBE5EC0FE33049
:1007600040F4F0E0E15AFE4F808190E00E94BB151A
:10077000A7CFC85ACB3108F0A3CFEC2FF0E0EE0F93
:10078000FF1FE75DFE4F808191810E94E01598CFA9
:10079000882309F44DC0823879F40E94AD1581FF99
:1007A00047C089E30E9455160E94910B89E30E947D
:1007B0005D160E94910B0895833859F40E94AD157F
:1007C00080FF36C083E50E9455160E94910B83E599
:1007D000EECF843859F40E94AD1582FF29C087E41A
:1007E0000E9455160E94910B87E4E1CF9CEF980F71
:1007F000913AE8F290E2980F983050F4877091E0C7
:1008000001C0990F8A95EAF7892F0E940B0BD1CF6F
:100810009BE5980F933028F490E080E00E94BB1590
:100820000895885A8B3120F490E080E00E94E01512
:1008300008951F93CF93DF93182FEB010E9443037A
:10084000209739F4812F0E94C803DF91CF911F9127
:1008500008958FE99FE00197F1F700C0000021970C
:10086000EFCF70E060E0893311F460E570E00E9442
:1008700019040895882321F00E94050B0E94910B12
:100880000895882321F00E940B0B0E94910B08957C
:10089000B0E0A0E0EEE4F4E00C9430206C01D62F40
:1008A000C72FFC011581068102950F700E94FB0A7B
:1008B000E82E8823F9F0E12E1123E1F08C2F807FC0
:1008C000803461F080E28D0F883008F18C2F807EBB
:1008D000803221F4D230D8F00023C9F080917E021A
:1008E00082FF15C082E00E94B60B0E94FB0A91E0D5
:1008F000E82EE926BC2EB2949FE0B922FBE0FB155E
:10090000B8F1EB2DF0E0E853FF4D0C942120E12CE1
:10091000F1CF0C2F0F70C07F11F00295007F1123D3
:1009200099F0002359F080E28D0F883010F0D1113A
:1009300007C0802F0E94050B0E94910B8D2F48C08D
:10094000802F0E94150BF8CF8D2F0E94C803002323
:1009500079F080E28D0F883010F0D11104C0802F23
:100960000E940B0B03C0802F0E941B0B0E94910B57
:10097000EB2DE850FF0B349708F066C10E949915E3
:100980000E94E502CDB7DEB7E9E00C944C202C2F95
:100990002F70F22EC07FC03219F0F29480EFF8224F
:1009A000DD2341F0D130C9F1112309F443C0002304
:1009B000E9F0C4CF80917E0282FD14C0112359F06A
:1009C000FF2029F08F2D0E94050B0E94910B80E0E3
:1009D0000E944303CDCF80E00E94C803FF2041F274
:1009E0008F2DBECF112369F0011104C08F2D0E94FD
:1009F0003A04BECF013009F0BBCF8F2D0E94390BD6
:100A0000B7CF0111B5CF8F2D0E9441048F2D0E94C9
:100A1000450B8F2D0E94290BABCF112321F00630FF
:100A200008F0A6CFE3CF053008F0A2CF8F2D0E94AB
:100A300041049ECF0023D1F3D93349F43FEF87EE31
:100A400093E0315080409040E1F700C000008D2FCE
:100A50000E94C8038DCF8C2F86958695837069F090
:100A6000813009F085CF8D2F9C2F9370111102C01A
:100A700080E090E00E94E0157BCF8D2F9C2F93703B
:100A8000111102C080E090E00E94BB1571CF8C2F45
:100A90008370A1F511116CCF4D2F4295469547708B
:100AA000440F440F2D2F2F7030E0042E02C0220F70
:100AB000331F0A94E2F790E080E0D4FF09C08FE092
:100AC00090E002C0880F991F4A95E2F780959095B3
:100AD000C695C695C370822B932BC23049F058F44B
:100AE000C13019F00E94DF0643CF0E94D60640CFE6
:100AF0000E94E8063DCF0E94D3063ACF8695112387
:100B000011F08C2F8170882309F432CF4D2F42953C
:100B100046954770440F440F2D2F2F7030E0042E60
:100B200002C0220F331F0A94E2F790E080E0D4FF66
:100B300009C08FE090E002C0880F991F4A95E2F744
:100B400080959095C695C695C370822B932BC23025
:100B500049F058F4C13019F00E944A0709CF0E94A9
:100B6000410706CF0E94530703CF0E94F70600CF2C
:100B7000CF70112329F08C2F0E940F078D2F37CFB4
:100B80008D2F0E9441048C2F0E941F07F1CED23F6F
:100B900041F160F4D03FB9F0D13F81F0112309F465
:100BA00043C00111CBCE8C2F8F711FC0D33F01F1F9
:100BB000D43FA1F780917E0282FD24C08C2F8F71DB
:100BC000112311F312C0112341F0053008F0D0CEEB
:100BD0008C2F8F710E943107CBCE063008F0C8CE23
:100BE000F7CF8C2F8F711111CFCF0E940F07C0CE7E
:100BF000112329F08C2F8F710E940307B9CE0E9418
:100C0000FE06B6CE112331F063E08C2F8F710E9467
:100C1000980BAECE81E00E94B60B023008F4A8CE4D
:100C200082E00E94B60BA4CE002359F0D93309F01C
:100C30000ECFEFEFF7EE23E0E150F0402040E1F778
:100C400004CF8C2F8F71A0CFEE2009F49BCE0E9491
:100C5000F70A80FD97CEF60115820E94F10A0E94E4
:100C60000F07C6010E9451060E94F10A0E941F0749
:100C700089CE0F931F93CF93DF93EC016881798125
:100C80008D810E9412088C010E945C070E94D2068E
:100C9000B801CE010E944804DF91CF911F910F91BE
:100CA0000895CF93DF93EC018C81882399F0CE01D6
:100CB0000E946202811111C00E94FB0A882351F038
:100CC0008D81882339F080917E0282FF03C082E00B
:100CD0000E94B60BDF91CF910895CE010E94390694
:100CE000CE010E940702F6CF90E080E00E94BB1583
:100CF00090E080E00E94E0150E94220B0E94910B80
:100D000008950E9465160E94740608950E94120BB1
:100D10000E948106089592959F70963091F058F444
:100D2000925F9F70923058F4803F19F030F4883E03
:100D300030F481E008959A5FF4CF843FD1F380E0EE
:100D40000895883EB0F3813FD1F7F3CFFC012481B1
:100D5000222339F0808191810E9407080E948B062E
:100D6000089580E00895A6E0B0E0E9EBF6E00C9489
:100D700037202696E2E00C945320A7E0B0E0E3ECA5
:100D8000F6E00C9437202796E2E00C945320089567
:100D90000E94C70608950E94C8069093D9018093C7
:100DA000D801089508950E94CB0608952091D80196
:100DB0003091D901822B932B0E94CB06089520916C
:100DC000D8013091D901822393230E94CB06089544
:100DD0002091D8013091D901822793270E94CB0618
:100DE00008950E94C70608950E94F10608950E9482
:100DF000F4069093D7018093D601089590E080E0A7
:100E00000E94F706089521E030E0A90102C0440FD6
:100E1000551F8A95E2F7CA010E94F706089521E05E
:100E200030E002C0220F331F8A95E2F78091D6018D
:100E30009091D701822B932B0E94F706089521E011
:100E400030E002C0220F331F8A95E2F720953095DB
:100E50008091D6019091D701822393230E94F706B7
:100E6000089521E030E002C0220F331F8A95E2F797
:100E70008091D6019091D701822793270E94F7068F
:100E800008952091D6013091D701822B932B0E9497
:100E9000F70608952091D6013091D701822393233C
:100EA0000E94F70608952091D6013091D70182273C
:100EB00093270E94F70608950895262F277091E042
:100EC00001C0990F2A95EAF723E0769567952A9550
:100ED000E1F7660F771F660F771FFA01E60FF71F1E
:100EE00050E040E0682F70E08191DF0111979B0195
:100EF000042E02C0369527950A94E2F721702195B9
:100F00002827292328272C934F5F5F4F4430510512
:100F100059F70895A82FA77023E0969587952A95ED
:100F2000E1F7880F991F880F991FFB01E80FF91F40
:100F300050E040E080E0219130E00A2E02C036957A
:100F400027950A94E2F721703327042E01C0220F5F
:100F50000A94EAF7822B4F5F5F4F4430510559F7EF
:100F60000895262F9A3070F4873060F4682F70E06F
:100F700087E0989F600D711D112442EB51E0822F94
:100F80000E945D070895292F9A3068F4873058F43D
:100F900090E062EB71E037E0239F800D911D1124FA
:100FA0000E948A07089580E00895B0E0A0E0EBED8C
:100FB000F7E00C9430207C010091D6011091D7010C
:100FC0008091D8019091D901082B192BCFE0D0E066
:100FD000CC24C394D12CBC2EC6010C2E02C0880F89
:100FE000991F0A94E2F780239123892B49F42197D2
:100FF00090F7B12C8B2DCDB7DEB7E9E00C944C20E7
:10100000B7018C2F0E94C90E019789F3F3CFCF93BC
:10101000DF93EC010E94D507BE010E94C90EDF914B
:10102000CF9108951F93CF93DF93EB019091B1017E
:10103000992339F0CB010E940708DF91CF911F91CE
:101040000895882369F0CB010E94D507182F682FD7
:10105000CE010E94B107BE01812F0E94C90EEDCFC3
:10106000CB010E94C307182FF6CF1F93CF93DF93B6
:10107000C091DA0117E08091DB018C1304C0DF918D
:10108000CF911F910895D0E01C9FF0011D9FF00D9E
:101090001124E452FE4F20813181428153816481C9
:1010A000758186810E94BD062196C770E4CF20918C
:1010B000140230911502409116025091170260916E
:1010C00018027091190280911A020E94BD060895BB
:1010D000CF93DF9380911A02807F09F04DC08091F9
:1010E0001902882309F448C0E091DA015091DB012C
:1010F000C0911502D09114026091160270911702EE
:1011000047E05E17C9F18E2F90E0E49FF0011124B3
:10111000E452FE4F2481222391F1489FF001499F20
:10112000F00D1124DF01A452BE4F11962C9111979E
:101130002C1325C02C912D1322C015962C91159798
:1011400021111DC012962D913C91261B370B28377B
:101150003105A8F480911A028F70806180931A0281
:10116000EE51FE4F80818F708061808384E192E038
:101170000E9451060E943508DF91CF910895FC012D
:101180003196E770BECF482F2091DA019091DB01B4
:1011900057E0291302C080E0089530E0529FF0012B
:1011A000539FF00D1124E452FE4F8181681306C055
:1011B0008081481303C085818111EECF2F5F3F4F9F
:1011C0002770E7CFA4E1B0E0E8EEF8E00C942D2022
:1011D0008C0186E0F801DE011F9601900D928A9540
:1011E000E1F7F8018481E58094E1A92E92E0B92E1F
:1011F0009091180291111FC08823D1F0EE20A9F020
:10120000C8010E94A606F82E882379F087E0F8012D
:10121000D50101900D928A95E1F7C5010E943A032C
:101220000E9468080E9457085FC0C8010E945106CA
:10123000FF24F39459C0C080D18082809380F090C5
:1012400019022091160230911702A401421B530B80
:10125000FF2009F4F9C04837510508F0A7C08823DA
:1012600009F442C09091150280911A02282F207F24
:1012700009F05CC09D1116C090911402C91212C0F1
:10128000E1104EC08F70806180931A020E9457084F
:1012900084E192E00E94510680911A02F80186834F
:1012A000F12C22C0E1103CC06D2D8C2D0E94C30892
:1012B0006D2D8C2D0E94C308E82E8111F1CFCF86B1
:1012C000D88A8F8598890E940708292F22952F7028
:1012D000243078F49F702230A8F09923B9F0F801F7
:1012E0009681907F99F4FE2C8F2D6496ECE00C94FF
:1012F00049202A5F2F70223068F0C8010E945106F1
:10130000EF2CF1CF992311F0882369F3805E8830A8
:1013100050F3F3CF803F38F3815F833070F7E3CF32
:1013200080911A02816080931A02BACF9D1113C076
:1013300090911402C9120FC0E1100DC08683C8013C
:101340000E94510687E0F801A4E1B2E001900D92FD
:101350008A95E1F767CFC8010E94A606882309F4A1
:1013600064CFEE2009F461CF80911A02803288F0B8
:101370002091140230911502398728879B868A862E
:10138000909118029C871D868E87CE0108960E9438
:10139000510687E0F801A4E1B2E001900D928A9530
:1013A000E1F70E9468080E94570842CF90911A0204
:1013B000292F207FA1F4682D9A8A898AA6017A892B
:1013C0009E2D0E94B30684E192E00E94510687E0C0
:1013D000F50111928A95E9F70E94570861CF882399
:1013E00009F482CF809115028D1110C080911402F2
:1013F000C8120CC0E1100AC09683C8010E945106B1
:1014000087E0F50111928A95E9F76ECFC8010E9435
:10141000A606882309F409CFEE2009F406CF8091AF
:101420001A02803208F4B5CF2091140230911502CF
:101430003A8329839C828B82909118029D831E821D
:101440008F83CE010196A3CF48375105B8F5882385
:1014500009F4EECEFE2CEE2009F4E7CE80911502C1
:101460008D111EC080911402C8121AC080911A02F8
:1014700080FD0DC0982F907F51F08683903F09F436
:101480005ECF982F907F905F8F70892B57CF87E02A
:10149000F801A4E1B2E001900D928A95E1F724CF22
:1014A000C8010E94A606811174CF80911A02816042
:1014B00080931A02C8010E94510616CF682D9A8A9D
:1014C000898AA6017A899E2D0E94B30687E0F501DC
:1014D00011928A95E9F7A6CEAEE0B0E0E2E7FAE035
:1014E0000C943620288739874A875B876C877D87ED
:1014F0008E87CE0108960E94E2088823B1F06C85A1
:10150000662341F0288539854A855B857D858E85F2
:101510000E94BD0617E08091DA019091DB018913EA
:101520003DC02E96E3E00C94522087E0FE013896F1
:10153000DE01119601900D928A95E1F78C85882342
:1015400049F32091DB0130E0C901019687709927AA
:101550004091DA014817190699F097E0929FD0015F
:10156000939FB00D1124A452BE4FFE0131960190FD
:101570000D929A95E1F78093DB010E943508CACF5E
:101580000E9486061092DB011092DA0187E0E4E106
:10159000F2E0DF011D928A95E9F7BCCF819FC0017F
:1015A000112484529E4F0E94E208882309F4B9CF87
:1015B000E091DA011E9FF0011124E452FE4F2081D8
:1015C0003181428153816481758186810E94BD068B
:1015D0008091DA0190E00196877099278093DA0173
:1015E0009ACF80912302869586958695089580915D
:1015F00023028770089590912302977081E009F487
:1016000080E0089580912F02089590912F02892BF8
:1016100080932F020895809590912F0298239093A4
:101620002F02089510922F02089590912E02892B77
:1016300080932E020895809590912E029823909386
:101640002E02089510922E02089508950E94250BEF
:10165000089590912402292F282331F08095892321
:10166000809324020E94260B089508950E94350B52
:10167000089590912502292F2823281729F0982BC7
:10168000909325020E94360B089590912502292FF0
:10169000282331F080958923809325020E94360B00
:1016A000089580912502882329F01092250280E078
:1016B0000E94360B08950F931F93CF93DF930091F1
:1016C000000110910101C0912F0280912E02C82BC0
:1016D00080912502882331F0C82B0E9405168111C4
:1016E0000E94510BF801C083C0910001D09101010B
:1016F00048E050E06BE172E0CE010E945E20892B51
:1017000059F088E0FE01ABE1B2E001900D928A95BC
:10171000E1F7CE010E94B015DF91CF911F910F919B
:1017200008950E945B0B089508950E94940B0895FC
:1017300090917E0292FF11C098E0899F9001112440
:10174000622B609323020E940F07809123028695EB
:10175000869586950E94950B08950E940F0708951F
:101760001092230280E00E94950B0895909123022D
:101770008095892380932302282F277069F4891785
:1017800059F090917E0292FF07C0869586958695C6
:101790000E941F070E94B00B089590917E0292FB59
:1017A000222720F9281769F080FB92F990937E0296
:1017B00080917D0290917E020E941C0C82E00E942A
:1017C000B60B089580917E0282FB882780F991E014
:1017D00089270E94CD0B089581E00E94CD0B0895CA
:1017E00080E00E94CD0B08956FEF7FEF90E080E0E6
:1017F0000E94B020089590E080E00E947C2021E0CB
:10180000853E9E4F09F020E0822F089582E090E00F
:101810000E947420089583E090E00E94742090E07C
:101820000895682F83E090E00E949220089584E05C
:1018300090E00E947C200895BC0184E090E00E942A
:10184000B0200895AB01BC018FE090E00E94A4207D
:101850000895AB01BC0183E190E00E94A4200895AB
:1018600060E070E0CB010E94290C089560E070E018
:10187000CB010E94220C0E94300C0895A8E0B0E039
:10188000E4E4FCE00C94372065EE7EEF90E080E02D
:101890000E94B02060E082E090E00E94922081E00F
:1018A00090E09093D9018093D8010E94110C60E0E0
:1018B00074E184E090E00E94B02060E086E090E077
:1018C0000E94922060E087E090E00E94922040E039
:1018D00050E0BA0188E090E00E94A42060E083E23A
:1018E00090E00E94922060E08CE090E00E949220C4
:1018F00060E08DE090E00E94922019821A821B82A3
:101900001C821D821E821F82188648E050E067E11B
:1019100070E0CE0101960E94822040E050E0BA01C2
:101920008FE190E00E94A4200E94360C2896E2E00D
:101930000C9453200E943E0C0895682F8EE090E096
:101940000E9492200895A6E0B0E0E9EAFCE00C9441
:1019500035200E947C178C018091300290913102D9
:101960008017910781F019821A820E947C17682FD4
:1019700049815A81792F80E090E00E940A031093F8
:101980003102009330022696E4E00C9451200E942C
:10199000E50F60934002709341028093420290935E
:1019A000430260933C0270933D0280933E02909309
:1019B0003F020895089508950E94DA0C089508954D
:1019C0000E94DF0C0E94DC0C089508950E94E50C33
:1019D000089508950E94E90C0E94E60C089581E0A4
:1019E00008958FEF9FE00E94C9130E94DB0C0E94B4
:1019F000E00C08950E94C81108950895089508956F
:101A00000E94FD0C0E94FE0C0E94FF0C08950E9493
:101A1000FB0B811102C00E949A0C0E94060C80935D
:101A200044020E94170C90937E0280937D020E94D4
:101A30000B0C0E94D3068091D6019091D7010E9491
:101A4000F40608950E9473170E94BF0F0E94CE11E2
:101A50000E941F110E94070D0E94E4020E94CE13F3
:101A60000E94E0110E94EA0C0895A6E0B0E0EBE3CA
:101A7000FDE00C942E200E94EF0C81110AC00E9400
:101A8000A30C0E94C8110E94F1022696EBE00C9470
:101A90004A200E94421182E3A82E82E0B82E7501EE
:101AA00010E0F70101917F01812F0E941B101F5F41
:101AB0001A3009F441C00817A1F38091440281FD56
:101AC0000E9421100E94FA0CC82E10E099249394D1
:101AD000812F0E941B10082FF50181915F010817CB
:101AE00029F1F12CEE24E394D02ED8268D2D8E21D1
:101AF000A9F0CC2099F0F9821A830E947C179C836C
:101B00008B839D8291E0802F8E2109F490E04981A2
:101B10005A816B817C818D810E940A03F394EE0CC3
:101B2000F7E0FF12E3CFF501319700831F5F1A3012
:101B300079F60E94C70CA5CF0813BFCFA0CF1F9383
:101B4000CF93DF930E94CE0EEC01C11580E5D8073C
:101B5000F0F5C11580E4D80708F09CC0C03ED1055F
:101B600020F5CD3CD10508F082C0C83AD10578F403
:101B7000C53AD10508F073C0C130D10519F12097DD
:101B800009F1C430D105F0F4D0E0C0E01BC0C33C83
:101B9000D105D0F7C85AD0E0CC0FDD1FCE59DE4FAB
:101BA0000990D881C02DD4640DC0C11580E2D8073A
:101BB00008F0D1C0C11581E0D80708F05AC0C83E6E
:101BC000D10510F7CE01DF91CF911F910895C03656
:101BD00082E5D80718F5C03482E5D80708F06BC055
:101BE000C03282E5D80708F05FC0C11582E5D8078A
:101BF00008F497C02C2F2695269580E2289F900107
:101C000011248C2F8370C1E0D0E002C0CC0FDD1F07
:101C10008A95E2F7C22BD32BDD68D4CFC03A82E598
:101C2000D80760F4C03882E5D80708F459C0CF71EE
:101C3000D0E0DC2FCC27C46FD06AC4CFC03C82E593
:101C4000D80708F462C0C03E82E5D80708F09CCFF0
:101C5000DC2FCC27CC27DF71C06FD06AB3CFC55A39
:101C6000D0E0C856DE4FC881D0E0D064ABCFD0659D
:101C7000A9CF8D2F0E94700F182FCE0199270E9497
:101C8000CE0EC12FD0E0DC2FCC27CC27DF71C82BA4
:101C9000D92B98CFCE0199270E94CE0ECC27DF708A
:101CA000C82BD92BD06A8ECFCF71D0E0DC2FCC27B8
:101CB000C16FD06A87CF2C2F26952695277080E29A
:101CC000289F900111248C2F8370C1E0D0E002C0C6
:101CD000CC0FDD1F8A95E2F7C22BD32BDC6872CFC5
:101CE0002C2F26952695277080E2289F900111249D
:101CF0008C2F8370C1E0D0E002C0CC0FDD1F8A952D
:101D0000E2F7C22BD32BDA685DCF8C2F8F710E9444
:101D1000700FC82FD0E0DC2FCC27CC27DF71D0622A
:101D200051CF8C2F8F710E94700F55E0D695C795BB
:101D30005A95E1F7CF70D0E0DC2FCC27282F30E088
:101D400084FF05C044E0220F331F4A95E1F7C22B00
:101D5000D32BD06937CF8D2F8F710E94700F182F22
:101D6000CE0199270E94CE0EC12FD0E0DC2FCC27C8
:101D7000CC27DF71C82BD92BD2CF462F7A3030F445
:101D8000673020F4672F0E949901089590E080E069
:101D900008950E94BD0E0E949F0D089582389105FE
:101DA000B9F1B0F48133910509F47DC048F489326A
:101DB000910509F46DC08A32910509F47BC008953C
:101DC0008533910509F45FC08933910509F10895C0
:101DD000833E9105D9F138F4803E910529F1823E88
:101DE000910579F10895863E9105D9F1873E9105D7
:101DF00009F43EC0843E910541F520917E0221FF09
:101E000024C080917D0284FD19C087EE90E0089582
:101E100020917D02237009F05AC020917E0223FF99
:101E200014C089E290E0089520917D0220FD38C021
:101E300030917E0230FF09C024FF43C090E080E073
:101E4000089520917D0222FDF7CF089520917D0213
:101E500022FD3AC030917E0230FD39C024FFF5CF1B
:101E6000EDCF20917D0223FFF0CF24FDE7CFCDCF32
:101E700020917D0223FD2EC030917E0231FFEECFF6
:101E800084EE90E0089520917D0225FFDECFC9CF3A
:101E900020917D0225FD21C020917E0223FFD5CF18
:101EA00089E390E0D2CF20917D0226FFCECF8AE257
:101EB00090E0089520917D0226FFC7CF81E390E056
:101EC000089583EE90E0089582EE90E0089580EE0C
:101ED00090E0089586EE90E0089585E390E00895FF
:101EE00090917D0292FF10C041E0282F2471243090
:101EF00009F040E031E0282F2871283009F030E067
:101F0000431711F02CE0822793FF10C041E0282FE7
:101F10002471243109F040E031E0282F2871283164
:101F200009F030E0431711F02CE0822730917E0257
:101F300030FF10C051E0282F2171213009F050E00E
:101F400041E0282F2871283009F040E0541711F0A3
:101F500029E0822731FF10C041E0282F2171213173
:101F600009F040E031E0282F2871283109F030E0F5
:101F7000431711F029E0822794FD877E089510927F
:101F80007F021092800210928102109282020895C4
:101F9000CF92DF92EF92FF926B017C010E94C811F9
:101FA00081110EC00E948817C61AD70AE80AF90ADA
:101FB000C0927F02D0928002E0928102F09282026F
:101FC000FF90EF90DF90CF9008950F931F930E94A2
:101FD000C811882329F00E9488171F910F91089536
:101FE0000E94881700917F02109180022091810247
:101FF00030918202600F711F821F931FEECF80E02D
:102000000895CF939C01205E3245C1E02032310516
:1020100038F4FB01C581C11103C08F710E942802F1
:102020008C2FCF91089508950E941310089508955C
:102030000E9417100895E82FF0E0E257FD4F8081CD
:102040000895089580EA8A95F1F7089500C00895EB
:102050000E942210089508950E942B100895A5E073
:10206000B0E0E5E3F0E10C9433200E94C811F82EB3
:1020700060919802882309F440C085E0E82E8E0123
:102080000F5F1F4FF8018E2D11928A95E9F7862F69
:1020900090E0B80182579D4F0E94EE118823B9F05D
:1020A0008091830290E045E050E0B80182579D4F57
:1020B0000E945E2021E020934502892B91F4F12CAF
:1020C0000E9418108F2D2596E6E00C944F208091E9
:1020D00045028823A1F3F8011192EA94E9F71092DE
:1020E0004502A0918302B0E0A257BD4F85E0F80100
:1020F00001900D928A95E1F7E3CF70E062577D4F32
:102100008091830290E082579D4F0E9475120E9439
:102110002C10D8CFF894E82FE295EF70F0E031A1C1
:10212000282F2F7081E090E001C0880F2A95EAF7F0
:10213000982F9095932391A392A1892B82A37894B1
:1021400008950F931F93CF93DF93C2EAD1E0899153
:102150008F3F11F00E948A1081E0C73AD807B9F783
:10216000CBE9D1E002EA11E089918F3F11F00E94A2
:102170008A100C171D07C1F7DF91CF911F910F91A6
:102180000895B0E0A0E0E7ECF0E10C943120EC0120
:10219000D62E062F10E0C8018E559E4F7C01FC0103
:1021A00080818F3F09F444C0F894E82FE295EF70E6
:1021B000F0E091A18F7021E030E001C0220F8A95FC
:1021C000EAF7892F822B81A382A12095282322A3BD
:1021D00078940E942610EBE9F1E031E0C12C2191C6
:1021E0002F3F59F1A22FA295AF70B0E090968C913D
:1021F00090E02F7002C0959587952A95E2F780FDB3
:102200001CC0832FC82A330F81E0E23AF80739F760
:10221000F70180818F3F11F00E948A1061E0C110A8
:1022200001C060E08D2D0E942810C00FD11FC88210
:10223000CDB7DEB7E8E00C944D2080E0E3CF80918D
:1022400002018091020195E0811190E09093980243
:1022500085E0891B809383020E94A1108AE0EEE84A
:10226000F2E0DF01982F1D929A95E9F7E4E8F2E099
:10227000DF011D928A95E9F785E00E9480110E9496
:1022800014100895AAE0B0E0E8E4F1E10C943420E1
:102290008E010F5F1F4F8AE0F80111928A95E9F7CE
:1022A000F12C6F2DC8010E94C110F394F5E0FF12CC
:1022B000F8CF4AE050E0B80184E892E00E945E2046
:1022C00021E0009709F420E0892B41F08AE0F80131
:1022D000A4E8B2E001900D928A95E1F7609198022E
:1022E00070E062577D4F45E084E892E00E948111E2
:1022F000182F0E942F10812B2A96E5E00C94502075
:102300000895B0E0A0E0E7E8F1E10C9431206C0121
:102310007B01042FC22F222379F081E080934802B1
:102320000E947C17909347028093460280E0CDB7CD
:10233000DEB7E8E00C944D20D0914802DD23B1F3E4
:1023400080914602909147020E94FA16059770F319
:1023500010E0A801B601C7010E945E20892B31F070
:10236000A801B601C7010E946B20CD2F1092480230
:102370008C2FDDCFCF930E941420C82F811102C073
:102380000E940F208C2FCF91089580914C020895C8
:1023900080914B0208950E94C81108950E94BA11BD
:1023A00080934B020E94CB1180934C020E94C51176
:1023B000809302010E94C81181110E942412089585
:1023C0000E94C811811102C00E942712089581E065
:1023D00090914D029A3008F080E008950F931F937A
:1023E000CF93DF93EC018B0180914D028A30B8F4DA
:1023F000B801CE010E947212C82F811122C08091B3
:102400004D028F3FB9F40E947C1790934A0280934B
:1024100049028C2FDF91CF911F910F9108958091E8
:10242000490290914A020E94FA16843F914000F7B7
:10243000C0E0EFCF8F5F80934D028A3020F7C1E07C
:10244000E8CF10924D02E5CF0E942C1808950E940B
:102450002F180895B0E0A0E0E0E3F2E10C94322000
:102460007901C82F880FDD0B41155105A9F0FE0138
:1024700093E0EE0FFF1F9A95E1F7ED5FFE4F81812C
:102480009281825B9D4F208130E04217530708F410
:102490009A01A9010E946B20CE010E941819D82E22
:1024A0008823D1F001151105B9F083E0CC0FDD1FB1
:1024B0008A95E1F7FE01ED5FFE4F438150E004177E
:1024C000150708F4A801CD5FDE4F6C817D81625B4A
:1024D0007D4FC7010E946B208D2DCDB7DEB7E7E0A1
:1024E0000C944E200E94641308950E947B1308955B
:1024F000A4E0B0E0EEE7F2E10C94352060916502D3
:102500007091660280916702909168020E940417A0
:1025100011E0643671058105910518F10E94E50FFF
:102520006E5F7F4F8F4F9F4F69837A838B839C832E
:1025300010E000E030E020E044E050E0BE016F5FDA
:102540007F4F82E00E942A12182F882351F00E94A8
:102550008817609365027093660280936702909378
:102560006802812F2496E4E00C945120B0E0A0E0B2
:10257000ECEBF2E10C942F207C015B016A010E94DC
:10258000E71101E010E0882311F00AE010E0C1E05B
:10259000D0E0B501C701F6010995811104C021966B
:1025A0000C171D072CF4CDB7DEB7EAE00C944B20D6
:1025B000CC9F9001CD9F300D300D112490E080E034
:1025C00045E34A95F1F70000019682179307C1F79A
:1025D000E0CFA6E0B0E0EFEEF2E10C942F207B011B
:1025E000C090A701D090A80101E010E09E012A5FF1
:1025F0003F4F50E040E070E060E080E00E942A122F
:10260000182F882309F448C056018FEFA81AB80A7A
:102610006091610270916202809163029091640204
:102620000E940417643671058105910568F105E083
:1026300010E09E012F5F3F4F50E040E070E060E00F
:1026400081E00E942A12D82E65E070E0C5010E9448
:10265000CF1311E09E81981310E01D2141F10E94DB
:102660008817609361027093620280936302909373
:10267000640285E0FE013196ACE5B2E001900D9276
:102680008A95E1F711E013C065E070E0C5010E9492
:10269000CF139E818913CBCF85E0F6013196DE0101
:1026A000119601900D928A95E1F71111E2CF85E024
:1026B000ECE5F2E0D70101900D928A95E1F7812FC8
:1026C0002696EAE00C944B200F931F93CF93DF9351
:1026D000EC018B0149EE52E10E94B612882331F0E1
:1026E00048E752E1B801CE010E94B612DF91CF91C6
:1026F0001F910F9108950F931F93CF93DF93C09174
:10270000A701D091A801CE01019625E0FB01DC01D3
:1027100001900D922A95E1F765E070E00E94CF13D9
:1027200088836E817F8188859985009158021091F8
:10273000590220915A0230915B026017710782079B
:10274000930751F0609358027093590280935A0294
:1027500090935B020E94C80FDF91CF911F910F9160
:1027600008950E94350D08950E9415170E94CB1AF6
:102770000E94F10C0E94E51A0E94220D0E94F21A9A
:102780000E94F71A0E94B1130E94111B0E94000DB3
:10279000F7CF9093AB018093AA0108950895FC01AF
:1027A000680F791F8FEF91E3E617F70709F4089593
:1027B0002191822728E030E087FF06C0880F892713
:1027C00021503109C9F7F0CF880FFACFCF93DF93AB
:1027D000EB0186319C4711F50E94020B9D819923E4
:1027E00099F08A7A91E009F490E09093690281115E
:1027F00009C089E20E9455160E94910B80E0DF918A
:10280000CF91089585E3F6CF80916902811104C0CC
:1028100089E20E945D16F0CF85E3FBCF81E0EFCF28
:10282000CF93DF93EC01FB018581882309F4D2C0AB
:102830009E0130572332310508F0B2C00E94170CB8
:1028400090937E0280937D02FE01E150F047E232D8
:10285000F10520F4EC52FF4D0C94212080917D0273
:10286000816080937D0293C080917E028860809316
:102870007E028DC080917D028260F3CF80917D02C7
:102880008460EFCF80917D028860EBCF80917E02E3
:102890008160EDCF80917E028260E9CF80917D02E0
:1028A0008061DFCF80917D028062DBCF80917D02ED
:1028B0008064D7CF0E94860680917D028068D1CF48
:1028C00080917D028C60CDCF80917E028360CFCFDE
:1028D00080917D028E7FC5CF80917E02877FC7CF9A
:1028E00080917D028D7FBDCF80917D028B7FB9CF9E
:1028F00080917D02877FB5CF80917E028E7FB7CF9A
:1029000080917E028D7FB3CF80917D028F7EA9CF93
:1029100080917D028F7DA5CF80917D028F7BA1CF9D
:102920000E94860680917D028F779BCF80917D02E9
:10293000837F97CF80917E028C7F99CF80917D029B
:1029400082FB992790F921E0922790FB82F990FB76
:1029500083F987CF80917E02982F909591708E7F1A
:10296000892B90FB81F983CF90917D02892F8F7BFA
:1029700096FF806476CF0E94860690917D02892F13
:1029800097FB87F980586DCF81E00E949D0C809164
:102990007D0290917E020E941C0C0E94860680E0BF
:1029A000DF91CF91089580E0F0CF90917D02892F43
:1029B0008F7E94FF806155CF90917D02892F8E7F0D
:1029C00090FF81604ECF90917E02892F877F93FF89
:1029D00088604DCF81E0E4CF0F931F93CF93DF93B7
:1029E000C42FD22FFC0185818823C9F040936C024B
:1029F0000E947C1790936B0280936A0280E28C0F96
:102A0000883040F4C77081E001C0880FCA95EAF7AA
:102A10000E943A04DF91CF911F910F910895109178
:102A20006C02141332C080916A0290916B020E9472
:102A3000FA168837910548F5C0E2CD0F1D17B9F099
:102A400080E2810F883040F4177081E001C0880F68
:102A50001A95EAF70E944104C83048F481E09D2F9E
:102A6000977001C0880F9A95EAF70E943A04802F68
:102A70000E943104C83070F6D77081E001C0880F21
:102A8000DA95EAF70E944104C5CF80E28C0F8830C6
:102A900008F6C77081E001C0880FCA95EAF7F2CF47
:102AA0000F93DB0188519C4787309105A0F5FC010D
:102AB000EA50FF4D0C94212006E221EE41EE6AE13E
:102AC0007CE7CD010E94EC1480E00F91089507E2AD
:102AD00025EE45EE6BE17CE7F4CF06E221EE40EE19
:102AE00068E17CE7EECF07E225EE44EE69E17CE7A2
:102AF000E8CF06E221EE42EE6CE17CE7E2CF07E2AE
:102B000025EE46EE6DE17CE7DCCF08E221E045EE04
:102B10006EE17CE7D6CF15968C91882319F0109240
:102B20006C02D3CF81E0D1CF909373028093720275
:102B300008950E94C811811103C080916D0208950B
:102B4000E0917202F0917302309729F00190F081C8
:102B5000E02D0995089580E008950E949915089543
:102B6000E0917202F0917302309721F00280F381BC
:102B7000E02D09950895A3E0B0E0E1ECF5E10C94B7
:102B80003720209170023091710228173907A1F087
:102B90009093710280937002E0917202F09173023F
:102BA000309751F023E029839B838A830084F18549
:102BB000E02DCE01019609952396E2E00C94532076
:102BC000A3E0B0E0E6EEF5E10C94372020916E0230
:102BD00030916F0228173907A1F090936F0280930C
:102BE0006E02E0917202F0917302309751F024E08E
:102BF00029839B838A830084F185E02DCE01019691
:102C000009952396E2E00C945320409100015091E5
:102C100001019A012E5F3F4F485F5F4F80E024170C
:102C2000350709F40895F90191919F019923B9F3AA
:102C30008F5FF5CF882371F0209100013091010161
:102C4000F9013296285F3F4F9191981729F0E217CA
:102C5000F307D1F780E0089581E008959C01FC011D
:102C600032969FEF80E04191461751F09F3F19F453
:102C7000411101C0982F8F5F8630A9F79F3F09F45B
:102C80000895290F311D97FD3A95F9016283089542
:102C9000FC01329608962191261303C0DF0111979B
:102CA0001C92E817F907B9F70895682F8091000181
:102CB000909101010E942E160895682F80910001C5
:102CC000909101010E9448160895E0910001F09151
:102CD0000101329686E0DF011D928A95E9F7089599
:102CE00008950E947016089581110EC081E08093AE
:102CF0001E0160911B0170911C0180911D0190913A
:102D00001E010E947116089582E0F1CF83E0809346
:102D10001E0160911B0170911C0180911D01909119
:102D20001E010E94711608950E947416089581E094
:102D300080931E0160911B0170911C0180911D0107
:102D400090911E010E94711608950E949716089591
:102D500091E0811101C090E090931D0160911B01F1
:102D600070911C0180911D0190911E010E947116AD
:102D7000089580911D01089580931C0160911B01AD
:102D800070911C0180911D0190911E010E9471168D
:102D9000089580911C01089580931B0160911B018F
:102DA00070911C0180911D0190911E010E9471166D
:102DB000089580911B010895089508950E94DD16DD
:102DC0000895089508950E94DC160895CF930E94F7
:102DD000E1160E9442110E94E216C0E08C2F0E9470
:102DE0001B10811105C0CF5FCA30C1F7CF91089584
:102DF00081E0FCCFCF93DF93EC010E947C178C1B0A
:102E00009D0BDF91CF910895CF92DF92EF92FF92C9
:102E10006B017C010E9488176C197D098E099F093E
:102E2000FF90EF90DF90CF90089585B7806885BFC1
:102E300085B7806885BF08951F921FB61F92112421
:102E40008F939F93AF93BF9380917402811113C0AE
:102E50008091990290919A02A0919B02B0919C025C
:102E60004196A11DB11D8093990290939A02A0935F
:102E70009B02B0939C02BF91AF919F918F911F9045
:102E80001FBE1F9018958091A102843031F10E94DD
:102E9000C4021092740288E190E020E40FB6F89426
:102EA000A895809360000FBE2093600083B7817F58
:102EB000846083BF83B7816083BF7894889583B72C
:102EC0008E7F83BF0FB6F894A895809160008861CB
:102ED00080936000109260000FBE08950E948606E5
:102EE0000E94CB02089582E084BD93E095BD9AEFE5
:102EF00097BD80936E0008952FB7F8948091990242
:102F000090919A02A0919B02B0919C022FBF0895CC
:102F10002FB7F8946091990270919A0280919B0268
:102F200090919C022FBF089578941F921FB61F9214
:102F300011248F939F93AF93BF93809199029091A7
:102F40009A02A0919B02B0919C020196A11DB11D15
:102F50008093990290939A02A0939B02B0939C0253
:102F6000BF91AF919F918F911F901FBE1F90189599
:102F700087E797E7909301088093000888E19AE03B
:102F80000FB6F894A895809360000FBE90936000F0
:102F9000FFCF88E19AE00FB6F894A895809360007F
:102FA0000FBE90936000FFCF8EE1489B02C081501E
:102FB000E1F7489BFECF0895589880E28A95F1F793
:102FC000589A0895FC013BE03A95F1F798E020E02B
:102FD00080E031E040E14A95F1F7880F489B02C05C
:102FE0008160232742E04A95F1F7000040E14A95CD
:102FF000F1F7915079F790E19A95F1F799B132E0B4
:103000003A95F1F7000040E14A95F1F79170922767
:103010002081920F90830895A1E0B0E0E2E1F8E111
:103020000C94332019828C017C01E60EF11C0E15E4
:103030001F0541F481E09981911180E02196E6E03D
:103040000C944F200E94D417CE0101960E94E217E3
:10305000F80181938F01EBCF509A589A08955098B8
:10306000589AE89AE9E6F0E080818C7F80830895A1
:103070006150770B91E001C0990F6A95EAF720E063
:1030800031E0911108C0222391F0589A80E28A958C
:10309000F1F758980895492F482339F0589A232773
:1030A00040E24A95F1F79695ECCF5898F9CF5898A9
:1030B000EDCFFF920F931F93CF93DF93EC018C0121
:1030C000060F111DC017D10729F4CDB7DEB7E5E013
:1030D0000C945020F9900E94DC1768E08F2D0E941C
:1030E0003818F0CF1F920F920FB60F9211240F9342
:1030F0001F932F933F934F935F936F937F938F9380
:103100009F93AF93BF93EF93FF93CF93DF930F9270
:10311000CDB7DEB719820E94D417CE0101960E9466
:10312000E217082F069506950695282F22952570FB
:10313000902F9570290F922F937026952695920FB8
:10314000982797708981982B09F05CC0043008F0AB
:1031500059C080E18A95F1F7589A509A82E08A9591
:10316000F1F700C0589888E0089F80011124D80129
:10317000AD5FBE4F1696ED91FC9117973097A9F071
:103180006091A7017091A80114962D913C9115971B
:10319000260F371F11968D919C911297680F791FFA
:1031A00013964C9113978C910995F801ED5FFE4FA2
:1031B0006381662351F02091A7013091A801848199
:1031C0009581820F931F0E9459180E94DC1780E19D
:1031D0008A95F1F758985098589A80E18A95F1F7B6
:1031E000F801ED5FFE4F6081662351F02091A70149
:1031F0003091A80181819281820F931F0E940C1847
:103200000E94D4170F90DF91CF91FF91EF91BF9162
:10321000AF919F918F917F916F915F914F913F916E
:103220002F911F910F910F900FBE0F901F90189527
:103230000F931F93CF93DF93EC0104970CF04CC0D6
:10324000F894509A589885E08A95F1F700009C2FE1
:10325000969595708C2F8570980F892F8370969511
:10326000969523E0CC0FDD1F2A95E1F7980F8E018C
:10327000092B0E94DC1700C068E0802F0E943818DC
:1032800080E18A95F1F75098589A489B1EC087E0D4
:1032900090E048991CC0FE01ED5FFE4F63816623FC
:1032A000F9F02091A7013091A80184819581820FC6
:1032B000931F0E940C18811113C0509A589A789449
:1032C000DF91CF911F910F91089500C0DECF01973C
:1032D00029F4509A589A789480E0F2CF00C0D9CF60
:1032E0000E94D41780E28A95F1F75898509A80E1AD
:1032F0008A95F1F7CD5FDE4F6881662351F020910A
:10330000A7013091A80189819A81820F931F0E94A1
:1033100059180E94DC17789481E0D2CF089508955F
:103320009B01BA019091A1029430E9F48F708093CF
:10333000E9009FEF8091E800915085FD06C085ED82
:103340008A95F1F700009111F5CF8091E80085FF93
:103350000AC050E040E0C9010E94881B8091E8004B
:103360008E778093E800089543E050E0BC0182E04E
:103370000E9490190895CF93DF93EC010E94B91633
:1033800048E050E0BE0181E00E94901988E0FE0113
:10339000A5E7B2E001900D928A95E1F7DF91CF9118
:1033A00008958091A002811109C00E94181D0E94F9
:1033B000751D8091E20084608093E2000895109270
:1033C000A00208950E94971681E00E94A816089511
:1033D00060919D0281E0611101C080E00E9486162B
:1033E00008959091A10281E0943009F080E060910D
:1033F0009D020E949416089542E061EC81E00E94D3
:10340000941C42E261EC82E00E94941C9091A10223
:1034100081E0943009F080E060919D020E94741672
:1034200008958091A302833009F461C030F48130A3
:10343000D1F1823009F49EC008958A3009F48AC01F
:103440008B3009F46FC0893009F050C08091A2021E
:10345000813209F04BC08091A6029091A702029799
:1034600008F044C08091E800877F8093E800809155
:10347000E80082FF37C09091F3008091F20002973C
:1034800031F48091F100813011F0863021F4809187
:10349000F1000E94BC168091E8008B778093E800D1
:1034A0000E94C81C23C08091A202813AF9F4809145
:1034B000E800877F8093E8008091A6029091A702A0
:1034C000892B61F468E085E792E070E00E94D71BE9
:1034D0008091E8008B778093E800089560E090E0A9
:1034E00080E0F3CF8091A1028111C1CF0895809136
:1034F000A202813AD9F78091A6029091A702892B66
:10350000A9F78091E800877F8093E8008091E80028
:1035100080FFFCCF0E94B9168093F1008091E800F3
:103520008E77BCCF8091A202813201F78091A602F2
:103530009091A702892BD1F68091E800877F809334
:10354000E8000E94C81C8091A4020E94A8160E9454
:10355000860608958091A202813241F68091E800AA
:10356000877F8093E8000E94C81C8091A5020E947A
:10357000CC1608958091A202813A09F0B7CF8091CC
:10358000E800877F8093E8008091E80080FFFCCF0F
:103590000E94D916C1CF84B7877F84BF0FB6F89435
:1035A000A89580916000886180936000109260000F
:1035B0000FBE80E890E00FB6F8948093610090937E
:1035C00061000FBE0E94A51608950E94181D0E945A
:1035D000751DE2EEF0E080818460808378940E9423
:1035E000F41F08958FE191E00E9494150895809151
:1035F000A102853031F48091A102853019F00E943A
:103600006E1708950E9443170E94E616882399F3C7
:1036100080919F02882379F30E94721B0E94860684
:10362000EACF08959A014091A8025091A9020E9400
:103630001A1B0895492F55274330510519F168F495
:103640004130510509F444C04230510509F445C0E8
:1036500090E080E050E040E025C04132510549F162
:1036600042325105A9F784E490E047E752E0611542
:103670007105C1F082E390E045E452E061307105EC
:1036800089F0E6CF99278130910581F0009729F0E4
:103690000297F1F6E4ECF1E002C0E4EFF1E084918E
:1036A00090E0AF01F901518340830895E6EEF1E027
:1036B000F6CF89E090E04AE052E06115710591F3A0
:1036C00089E090E043E252E06130710559F3C0CFE8
:1036D00082E190E043E352E0E5CF8BE390E048EFF6
:1036E00051E0E0CF80E189BD82E189BD09B400FEEF
:1036F000FDCF8091D8008F7D8093D8008091E0002D
:1037000082608093E0008091E00081FDFCCF08950D
:10371000AF92BF92CF92DF92FF920F931F93CF93FE
:10372000DF936C01EB018A010E94E71CF82E8111E6
:1037300023C00115110539F0F80180819181C81B62
:10374000D90BC80ED91EB12CA12C2097A9F08091BD
:10375000E80085FD22C08091E8008E778093E80024
:1037600001151105A1F0F80180819181A80EB91E03
:10377000B182A08285E0F82E8F2DDF91CF911F912D
:103780000F91FF90DF90CF90BF90AF9008950E946F
:10379000E71C8823D1F2F82EEFCFF60181916F015B
:1037A0008093F1002197FFEFAF1ABF0ACECFFC0143
:1037B0008091A8029091A90286179707A0F0611541
:1037C000710529F49091E8009E779093E80090E0CD
:1037D0006115710551F4911108C08091E80082FFD4
:1037E00034C080E00895BC01F2CF8091A10288230B
:1037F000C1F18530C1F18091E80083FD30C0809136
:10380000E80082FDEACF8091E80080FFE1CF80915F
:10381000F3002091F200382F6115710519F028305E
:10382000310558F091E02830310509F090E0209101
:10383000E8002E772093E800CBCF81918093F100B0
:10384000615071092F5F3F4FE7CF8091A10288231C
:1038500041F0853041F08091E80083FFBECF81E0E8
:10386000089582E0089583E00895FC018091A80204
:103870009091A90286179707A0F06115710529F4A8
:103880008091E8008E778093E80090E061157105E3
:1038900051F4911108C08091E80082FF35C080E0AA
:1038A0000895BC01F2CF8091A1028823C9F185302F
:1038B000C9F18091E80083FD31C08091E80082FD6C
:1038C000EACF8091E80080FFE1CF8091F300209162
:1038D000F200382F6115710519F02830310558F0C4
:1038E00091E02830310509F090E08091E8008E7772
:1038F0008093E800CBCF84918093F10031966150A2
:1039000071092F5F3F4FE6CF8091A102882341F0DC
:10391000853041F08091E80083FFBDCF81E00895BC
:1039200082E0089583E00895982F973028F08F70F3
:103930008093E90081E008959093E900242F762F89
:1039400050E0981731F07091EC002091ED0050910B
:10395000F00021FD02C09F5FE8CF3091EB003E7F79
:103960003093EB003091ED003D7F3093ED003091CE
:10397000EB0031603093EB007093EC002093ED008E
:103980005093F0002091EE0027FDE5CF80E00895F0
:103990008091A20287FF13C08091E80082FF06C0D9
:1039A0008091E8008B778093E80004C08091A102A9
:1039B0008111F2CF08958091A1028823D9F38091DB
:1039C000E80080FFF8CF8091E8008E77ECCF20915F
:1039D000E4003091E50095E6A9012091EC00822FEA
:1039E000817020FF06C08091E80080FF06C080E063
:1039F00008952091E80022FD1AC08091A102882339
:103A000089F0853089F08091EB0085FD0FC0209111
:103A1000E4003091E50042175307F9F29150E1F6C6
:103A200084E0089582E0089583E0089581E0089598
:103A30000E94871D0E948F1DE0EEF0E08081816072
:103A40008083E8EDF0E080818F77808319BCA7ED5B
:103A5000B0E08C918E7F8C9380818F7E80831092DA
:103A6000A00208950F931F93CF93DF930E94871DA9
:103A70000E948F1DC8EDD0E088818F778883888170
:103A80008068888388818F7D888319BC1092A10209
:103A900010929D0210929F0210929E0200EE10E082
:103AA000F80180818B7F808388818160888342E0F8
:103AB00060E080E00E94941CE1EEF0E080818E7F67
:103AC0008083E2EEF0E08081816080838081886085
:103AD0008083F80180818E7F8083888180618883E4
:103AE000DF91CF911F910F910895E8EDF0E0808173
:103AF0008F7E8083E7EDF0E080818160808384E0C9
:103B000082BF81E08093A0020E94321D0895E8EDFB
:103B1000F0E080818E7F80831092E2000895109201
:103B2000DA001092E10008951F920F920FB60F92E3
:103B300011242F933F934F935F936F937F938F93B2
:103B40009F93AF93BF93EF93FF938091E10082FF28
:103B50000BC08091E20082FF07C08091E1008B7F63
:103B60008093E1000E94F31F8091DA0080FF19C06A
:103B70008091D80080FF15C08091DA008E7F8093FD
:103B8000DA008091D90080FF96C080E189BD82E192
:103B900089BD09B400FEFDCF81E08093A1020E949F
:103BA000D1198091E10080FF19C08091E20080FF6F
:103BB00015C08091E2008E7F8093E2008091E20048
:103BC00080618093E2008091D80080628093D80069
:103BD00019BC85E08093A1020E94E8198091E10060
:103BE00084FF2BC08091E20084FF27C080E189BD63
:103BF00082E189BD89B5982F917080FFFBCF8091BC
:103C0000D8008F7D8093D8008091E1008F7E8093D3
:103C1000E1008091E2008F7E8093E2008091E200DB
:103C200081608093E20080919D02882309F449C05D
:103C300084E08093A1020E94F1198091E10083FF4A
:103C400029C08091E20083FF25C08091E100877F39
:103C50008093E10082E08093A10210929D02809106
:103C6000E1008E7F8093E1008091E2008E7F80935F
:103C7000E2008091E20080618093E20042E060E037
:103C800080E00E94941C8091F00088608093F00096
:103C90000E94E219FF91EF91BF91AF919F918F9197
:103CA0007F916F915F914F913F912F910F900FBE38
:103CB0000F901F90189519BC1092A1020E94DF1955
:103CC00070CF8091E30087FD93E09093A102B3CF82
:103CD0001F920F920FB60F9211242F933F934F9381
:103CE0005F936F937F938F939F93AF93BF93CF9384
:103CF000DF93EF93FF93D091E900DF708091EC00A8
:103D0000C82FC17080FDC0E81092E9008091F000DA
:103D1000877F8093F00078940E94AC1E1092E90097
:103D20008091F00088608093F000CD2BCF70C0931D
:103D3000E900FF91EF91DF91CF91BF91AF919F91FA
:103D40008F917F916F915F914F913F912F910F9044
:103D50000FBE0F901F901895AAE2B0E0E2EBFEE1D3
:103D60000C94362082EA92E02091F100FC0121932C
:103D7000CF01F2E08A3A9F07B9F70E94111A8091A9
:103D8000E80083FF1EC18091A2029091A3029A30A5
:103D900008F017C1E92FF0E0E350FF4D0C9421200B
:103DA000803899F0823809F00CC18091A6028F709A
:103DB000873008F006C18093E9008091EB0085FB15
:103DC000882780F91092E90006C080919E029091A8
:103DD0009F02911182609091E800977F9093E80094
:103DE0008093F1001092F1008091E8008E77E5C099
:103DF000882309F4D3C0823009F0E3C08091A40283
:103E00008111D6C08091A6028F702FEF280F263027
:103E100008F0D7C08093E9002091EB0020FFC8C0D4
:103E2000933031F48091EB0080628093EB00C0C04E
:103E30009091EB0090619093EB0021E030E001C0A5
:103E4000220F8A95EAF72093EA001092EA00809107
:103E5000EB008860EACF8111B4C01091A4021F77F3
:103E60008091E3008078812B8093E3008091E800CB
:103E7000877F8093E8000E94C81C8091E80080FF43
:103E8000FCCF8091E30080688093E30082E0111111
:103E900083E08093A10295C08058823008F091C0E1
:103EA0008091A4029091A5028C3D23E09207A1F598
:103EB00083E08A838AE289834FB7F894DE01139600
:103EC00020E03EE051E2E32FF0E050935700E49110
:103ED00020FF03C0E295EF703F5FEF708E2F90E000
:103EE000EA30C0F0C7968D939D932F5F243159F728
:103EF0004FBF8091E800877F8093E8006AE270E01E
:103F0000CE0101960E94D71B8091E8008B778093A9
:103F1000E80057C0C096E7CF6091A6027091A70253
:103F2000AE014F5F5F4F0E94121BBC01892B09F449
:103F300048C09091E800977F9093E80089819A812A
:103F40000E94351CE1CF8038E1F58091E800877F41
:103F50008093E80080919D028093F10045CF81110C
:103F600030C09091A402923060F58091E800877F84
:103F70008093E80090939D020E94C81C80919D024E
:103F8000882311F084E005C08091E30087FDFACF1B
:103F900081E08093A1020E94FC1913C08091A402C9
:103FA000813079F481E0933009F080E080939F02C2
:103FB0001092E9008091E800877F8093E8000E94DA
:103FC000C81C8091E80083FF0AC08091E800877FC9
:103FD0008093E8008091EB0080628093EB00AA96CA
:103FE000E3E00C9452200895CF938091A10288239E
:103FF000A1F0C091E900CF709091EC00892F817001
:1040000090FD80E8C82B1092E9008091E80083FDC4
:104010000E94AC1ECF70C093E900CF9108950E941A
:10402000181D1092A1020895E8EDF0E080818061F2
:1040300080838AE18A95F1F700C08091D900817070
:104040000895EE0FFF1F0590F491E02D09942F9233
:104050003F924F925F926F927F928F929F92AF9218
:10406000BF92CF92DF92EF92FF920F931F93CF9365
:10407000DF93CDB7DEB7CA1BDB0B0FB6F894DEBFFC
:104080000FBECDBF09942A88398848885F846E8422
:104090007D848C849B84AA84B984C884DF80EE806C
:1040A000FD800C811B81AA81B981CE0FD11D0FB675
:1040B000F894DEBF0FBECDBFED010895FB01DC011A
:1040C00004C08D910190801921F441505040C8F7EF
:1040D000881B990B0895FB01DC0102C001900D9231
:1040E00041505040D8F70895F999FECF92BD81BD57
:1040F000F89A992780B50895A8E1B0E042E050E031
:104100000C94B820DC01A40FB51F4150504048F07A
:10411000CB01840F951F2E910E9493204150504057
:10412000D0F70895262FF999FECF92BD81BDF89A58
:10413000019700B4021639F01FBA20BD0FB6F894EB
:10414000FA9AF99A0FBE08950396272F0E9493209A
:104150000E949220252F0E949320242F0C949320BC
:104160000196272F0E9493200C949220DC01CB0112
:10417000FC01F999FECF06C0F2BDE1BDF89A319677
:1041800000B40D9241505040B8F70895F894FFCF15
:1041900089048904C704C7042B05B804B804B8040B
:1041A0004705B805C705C7056814DC1470143A1430
:1041B0003E1474144214781484144E14D5145214FA
:1041C000881456148C14B4145A149014BB1460142C
:1041D00096149E1446147C144A14801464149A1481
:1041E000AA14C414D31434146C14E3146D15731589
:1041F0005C15671579157F158515D01EF81EE11F12
:0E420000F81EE11F2B1F4C1FE11FA31FAF1F55
:10420E002602010000000100000000000000050170
:10421E00000000040600000000000000000100C9BC
:10422E0016BB198F198E19B419E200E900EA00B510
:10423E0000B600B700CD008301CC008A0192019434
:10424E00012102230224022502260227022A02B39A
:10425E0000B4006F0070009F01CB019F02A002818D
:10426E008283E200E900EA00B500B600B700CD0097
:10427E008301CC008A0192019401210223022402BF
:10428E002502260227022A02B300B4006F00700036
:10429E009F01CB019F02A002818283F4F5F6F731D4
:0A42AE0033329497C634354E0200F7
:00000001FF
